{
  "contractName": "Authentication",
  "abi": [
    {
      "anonymous": false,
      "inputs": [
        {
          "indexed": true,
          "internalType": "address",
          "name": "previousOwner",
          "type": "address"
        },
        {
          "indexed": true,
          "internalType": "address",
          "name": "newOwner",
          "type": "address"
        }
      ],
      "name": "OwnershipTransferred",
      "type": "event"
    },
    {
      "constant": true,
      "inputs": [],
      "name": "isOwner",
      "outputs": [
        {
          "internalType": "bool",
          "name": "",
          "type": "bool"
        }
      ],
      "payable": false,
      "stateMutability": "view",
      "type": "function"
    },
    {
      "constant": false,
      "inputs": [],
      "name": "kill",
      "outputs": [],
      "payable": false,
      "stateMutability": "nonpayable",
      "type": "function"
    },
    {
      "constant": true,
      "inputs": [],
      "name": "owner",
      "outputs": [
        {
          "internalType": "address",
          "name": "",
          "type": "address"
        }
      ],
      "payable": false,
      "stateMutability": "view",
      "type": "function"
    },
    {
      "constant": false,
      "inputs": [],
      "name": "renounceOwnership",
      "outputs": [],
      "payable": false,
      "stateMutability": "nonpayable",
      "type": "function"
    },
    {
      "constant": false,
      "inputs": [
        {
          "internalType": "address",
          "name": "newOwner",
          "type": "address"
        }
      ],
      "name": "transferOwnership",
      "outputs": [],
      "payable": false,
      "stateMutability": "nonpayable",
      "type": "function"
    },
    {
      "constant": true,
      "inputs": [
        {
          "internalType": "address",
          "name": "",
          "type": "address"
        }
      ],
      "name": "users",
      "outputs": [
        {
          "internalType": "bytes32",
          "name": "name",
          "type": "bytes32"
        },
        {
          "internalType": "uint256",
          "name": "age",
          "type": "uint256"
        },
        {
          "internalType": "uint256",
          "name": "phoneNumber",
          "type": "uint256"
        },
        {
          "internalType": "uint256",
          "name": "driverRating",
          "type": "uint256"
        },
        {
          "internalType": "uint256",
          "name": "riderRating",
          "type": "uint256"
        },
        {
          "internalType": "uint8",
          "name": "numberOfRidesGiven",
          "type": "uint8"
        },
        {
          "internalType": "uint8",
          "name": "numberOfRidesTaken",
          "type": "uint8"
        }
      ],
      "payable": false,
      "stateMutability": "view",
      "type": "function"
    },
    {
      "constant": true,
      "inputs": [
        {
          "internalType": "string",
          "name": "source",
          "type": "string"
        }
      ],
      "name": "stringToBytes32",
      "outputs": [
        {
          "internalType": "bytes32",
          "name": "result",
          "type": "bytes32"
        }
      ],
      "payable": false,
      "stateMutability": "pure",
      "type": "function"
    },
    {
      "constant": true,
      "inputs": [
        {
          "internalType": "bytes32",
          "name": "_bytes32",
          "type": "bytes32"
        }
      ],
      "name": "bytes32ToString",
      "outputs": [
        {
          "internalType": "string",
          "name": "",
          "type": "string"
        }
      ],
      "payable": false,
      "stateMutability": "pure",
      "type": "function"
    },
    {
      "constant": true,
      "inputs": [],
      "name": "login",
      "outputs": [
        {
          "internalType": "bytes32",
          "name": "",
          "type": "bytes32"
        }
      ],
      "payable": false,
      "stateMutability": "view",
      "type": "function"
    },
    {
      "constant": false,
      "inputs": [
        {
          "internalType": "bytes32",
          "name": "name",
          "type": "bytes32"
        }
      ],
      "name": "signup",
      "outputs": [
        {
          "internalType": "bytes32",
          "name": "",
          "type": "bytes32"
        }
      ],
      "payable": true,
      "stateMutability": "payable",
      "type": "function"
    },
    {
      "constant": false,
      "inputs": [
        {
          "internalType": "bytes32",
          "name": "name",
          "type": "bytes32"
        },
        {
          "internalType": "uint256",
          "name": "age",
          "type": "uint256"
        },
        {
          "internalType": "uint256",
          "name": "phoneNumber",
          "type": "uint256"
        }
      ],
      "name": "update",
      "outputs": [
        {
          "internalType": "bytes32",
          "name": "",
          "type": "bytes32"
        },
        {
          "internalType": "uint256",
          "name": "",
          "type": "uint256"
        },
        {
          "internalType": "uint256",
          "name": "",
          "type": "uint256"
        }
      ],
      "payable": true,
      "stateMutability": "payable",
      "type": "function"
    },
    {
      "constant": false,
      "inputs": [
        {
          "internalType": "address",
          "name": "_userAddress",
          "type": "address"
        },
        {
          "internalType": "uint256",
          "name": "_driverRating",
          "type": "uint256"
        }
      ],
      "name": "driverRating",
      "outputs": [],
      "payable": false,
      "stateMutability": "nonpayable",
      "type": "function"
    },
    {
      "constant": false,
      "inputs": [
        {
          "internalType": "address",
          "name": "_userAddress",
          "type": "address"
        },
        {
          "internalType": "uint256",
          "name": "_riderRating",
          "type": "uint256"
        }
      ],
      "name": "riderRating",
      "outputs": [],
      "payable": false,
      "stateMutability": "nonpayable",
      "type": "function"
    },
    {
      "constant": false,
      "inputs": [
        {
          "internalType": "address",
          "name": "_userAddress",
          "type": "address"
        }
      ],
      "name": "numberOfRidesGiven",
      "outputs": [],
      "payable": false,
      "stateMutability": "nonpayable",
      "type": "function"
    },
    {
      "constant": false,
      "inputs": [
        {
          "internalType": "address",
          "name": "_userAddress",
          "type": "address"
        }
      ],
      "name": "numberOfRidesTaken",
      "outputs": [],
      "payable": false,
      "stateMutability": "nonpayable",
      "type": "function"
    },
    {
      "constant": true,
      "inputs": [
        {
          "internalType": "address",
          "name": "_userAddress",
          "type": "address"
        }
      ],
      "name": "getUserData",
      "outputs": [
        {
          "internalType": "bytes32",
          "name": "name",
          "type": "bytes32"
        },
        {
          "internalType": "uint256",
          "name": "age",
          "type": "uint256"
        },
        {
          "internalType": "uint256",
          "name": "phoneNumber",
          "type": "uint256"
        },
        {
          "internalType": "uint256",
          "name": "NumberOfRidesGiven",
          "type": "uint256"
        },
        {
          "internalType": "uint256",
          "name": "NumberOfRidesTaken",
          "type": "uint256"
        },
        {
          "internalType": "uint256",
          "name": "",
          "type": "uint256"
        },
        {
          "internalType": "uint256",
          "name": "",
          "type": "uint256"
        }
      ],
      "payable": false,
      "stateMutability": "view",
      "type": "function"
    }
  ],
  "bytecode": "0x6080604052336000806101000a81548173ffffffffffffffffffffffffffffffffffffffff021916908373ffffffffffffffffffffffffffffffffffffffff1602179055506000809054906101000a900473ffffffffffffffffffffffffffffffffffffffff1673ffffffffffffffffffffffffffffffffffffffff16600073ffffffffffffffffffffffffffffffffffffffff167f8be0079c531659141344cd1fd0a4f28419497f9722a3daafe3b4186f6b6457e060405160405180910390a36116f9806100cf6000396000f3fe6080604052600436106100f25760003560e01c80638f32d59b1161008a578063cfb5192811610059578063cfb51928146104d2578063e65a0e53146105ae578063f2fde38b146105ff578063ffc9896b14610650576100f2565b80638f32d59b146103295780639201de5514610358578063a87430ba1461040c578063b34e97e8146104a7576100f2565b806353f30112116100c657806353f301121461021e5780635c1397de14610279578063715018a6146102bb5780638da5cb5b146102d2576100f2565b8062e8a194146100f757806317d987a1146101525780631e9815e5146101b657806341c0e1b514610207575b600080fd5b34801561010357600080fd5b506101506004803603604081101561011a57600080fd5b81019080803573ffffffffffffffffffffffffffffffffffffffff169060200190929190803590602001909291905050506106df565b005b6101926004803603606081101561016857600080fd5b81019080803590602001909291908035906020019092919080359060200190929190505050610784565b60405180848152602001838152602001828152602001935050505060405180910390f35b3480156101c257600080fd5b50610205600480360360208110156101d957600080fd5b81019080803573ffffffffffffffffffffffffffffffffffffffff169060200190929190505050610b2a565b005b34801561021357600080fd5b5061021c610b9f565b005b34801561022a57600080fd5b506102776004803603604081101561024157600080fd5b81019080803573ffffffffffffffffffffffffffffffffffffffff16906020019092919080359060200190929190505050610bcf565b005b6102a56004803603602081101561028f57600080fd5b8101908080359060200190929190505050610c74565b6040518082815260200191505060405180910390f35b3480156102c757600080fd5b506102d0610e99565b005b3480156102de57600080fd5b506102e7610f69565b604051808273ffffffffffffffffffffffffffffffffffffffff1673ffffffffffffffffffffffffffffffffffffffff16815260200191505060405180910390f35b34801561033557600080fd5b5061033e610f92565b604051808215151515815260200191505060405180910390f35b34801561036457600080fd5b506103916004803603602081101561037b57600080fd5b8101908080359060200190929190505050610fe9565b6040518080602001828103825283818151815260200191508051906020019080838360005b838110156103d15780820151818401526020810190506103b6565b50505050905090810190601f1680156103fe5780820380516001836020036101000a031916815260200191505b509250505060405180910390f35b34801561041857600080fd5b5061045b6004803603602081101561042f57600080fd5b81019080803573ffffffffffffffffffffffffffffffffffffffff169060200190929190505050611146565b604051808881526020018781526020018681526020018581526020018481526020018360ff1660ff1681526020018260ff1660ff16815260200197505050505050505060405180910390f35b3480156104b357600080fd5b506104bc6111a2565b6040518082815260200191505060405180910390f35b3480156104de57600080fd5b50610598600480360360208110156104f557600080fd5b810190808035906020019064010000000081111561051257600080fd5b82018360208201111561052457600080fd5b8035906020019184600183028401116401000000008311171561054657600080fd5b91908080601f016020809104026020016040519081016040528093929190818152602001838380828437600081840152601f19601f8201169050808301925050505050505091929192905050506112a7565b6040518082815260200191505060405180910390f35b3480156105ba57600080fd5b506105fd600480360360208110156105d157600080fd5b81019080803573ffffffffffffffffffffffffffffffffffffffff1690602001909291905050506112d2565b005b34801561060b57600080fd5b5061064e6004803603602081101561062257600080fd5b81019080803573ffffffffffffffffffffffffffffffffffffffff169060200190929190505050611347565b005b34801561065c57600080fd5b5061069f6004803603602081101561067357600080fd5b81019080803573ffffffffffffffffffffffffffffffffffffffff169060200190929190505050611364565b6040518088815260200187815260200186815260200185815260200184815260200183815260200182815260200197505050505050505060405180910390f35b6005811115610739576040517f08c379a000000000000000000000000000000000000000000000000000000000815260040180806020018281038252602281526020018061167c6022913960400191505060405180910390fd5b80600160008473ffffffffffffffffffffffffffffffffffffffff1673ffffffffffffffffffffffffffffffffffffffff168152602001908152602001600020600401819055505050565b6000806000856000801b8114156107e6576040517f08c379a000000000000000000000000000000000000000000000000000000000815260040180806020018281038252602781526020018061169e6027913960400191505060405180910390fd5b6000801b600160003373ffffffffffffffffffffffffffffffffffffffff1673ffffffffffffffffffffffffffffffffffffffff1681526020019081526020016000206000015414156108a1576040517f08c379a000000000000000000000000000000000000000000000000000000000815260040180806020018281038252600c8152602001807f7369676e7570206669727374000000000000000000000000000000000000000081525060200191505060405180910390fd5b8585600082111580156108b5575060008111155b15610928576040517f08c379a00000000000000000000000000000000000000000000000000000000081526004018080602001828103825260158152602001807f6572726f7220696e206669656c642076616c756573000000000000000000000081525060200191505060405180910390fd5b6000801b600160003373ffffffffffffffffffffffffffffffffffffffff1673ffffffffffffffffffffffffffffffffffffffff1681526020019081526020016000206000015414610b1d5788600160003373ffffffffffffffffffffffffffffffffffffffff1673ffffffffffffffffffffffffffffffffffffffff1681526020019081526020016000206000018190555087600160003373ffffffffffffffffffffffffffffffffffffffff1673ffffffffffffffffffffffffffffffffffffffff1681526020019081526020016000206001018190555086600160003373ffffffffffffffffffffffffffffffffffffffff1673ffffffffffffffffffffffffffffffffffffffff16815260200190815260200160002060020181905550600160003373ffffffffffffffffffffffffffffffffffffffff1673ffffffffffffffffffffffffffffffffffffffff16815260200190815260200160002060000154600160003373ffffffffffffffffffffffffffffffffffffffff1673ffffffffffffffffffffffffffffffffffffffff16815260200190815260200160002060010154600160003373ffffffffffffffffffffffffffffffffffffffff1673ffffffffffffffffffffffffffffffffffffffff16815260200190815260200160002060020154955095509550610b1e565b5b50505093509350939050565b600160008273ffffffffffffffffffffffffffffffffffffffff1673ffffffffffffffffffffffffffffffffffffffff168152602001908152602001600020600501600181819054906101000a900460ff168092919060010191906101000a81548160ff021916908360ff1602179055505050565b610ba7610f92565b610bb057600080fd5b6000808190508073ffffffffffffffffffffffffffffffffffffffff16ff5b6005811115610c29576040517f08c379a000000000000000000000000000000000000000000000000000000000815260040180806020018281038252602281526020018061167c6022913960400191505060405180910390fd5b80600160008473ffffffffffffffffffffffffffffffffffffffff1673ffffffffffffffffffffffffffffffffffffffff168152602001908152602001600020600301819055505050565b6000816000801b811415610cd3576040517f08c379a000000000000000000000000000000000000000000000000000000000815260040180806020018281038252602781526020018061169e6027913960400191505060405180910390fd5b6000801b600160003373ffffffffffffffffffffffffffffffffffffffff1673ffffffffffffffffffffffffffffffffffffffff16815260200190815260200160002060000154148015610d6957506000600160003373ffffffffffffffffffffffffffffffffffffffff1673ffffffffffffffffffffffffffffffffffffffff16815260200190815260200160002060010154145b8015610db757506000600160003373ffffffffffffffffffffffffffffffffffffffff1673ffffffffffffffffffffffffffffffffffffffff16815260200190815260200160002060020154145b15610e4d5782600160003373ffffffffffffffffffffffffffffffffffffffff1673ffffffffffffffffffffffffffffffffffffffff16815260200190815260200160002060000181905550600160003373ffffffffffffffffffffffffffffffffffffffff1673ffffffffffffffffffffffffffffffffffffffff168152602001908152602001600020600001549150610e93565b600160003373ffffffffffffffffffffffffffffffffffffffff1673ffffffffffffffffffffffffffffffffffffffff1681526020019081526020016000206000015491505b50919050565b610ea1610f92565b610eaa57600080fd5b600073ffffffffffffffffffffffffffffffffffffffff166000809054906101000a900473ffffffffffffffffffffffffffffffffffffffff1673ffffffffffffffffffffffffffffffffffffffff167f8be0079c531659141344cd1fd0a4f28419497f9722a3daafe3b4186f6b6457e060405160405180910390a360008060006101000a81548173ffffffffffffffffffffffffffffffffffffffff021916908373ffffffffffffffffffffffffffffffffffffffff160217905550565b60008060009054906101000a900473ffffffffffffffffffffffffffffffffffffffff16905090565b60008060009054906101000a900473ffffffffffffffffffffffffffffffffffffffff1673ffffffffffffffffffffffffffffffffffffffff163373ffffffffffffffffffffffffffffffffffffffff1614905090565b606060008090505b60208160ff1610801561103c5750600060f81b838260ff166020811061101357fe5b1a60f81b7effffffffffffffffffffffffffffffffffffffffffffffffffffffffffffff191614155b1561104e578080600101915050610ff1565b60608160ff166040519080825280601f01601f1916602001820160405280156110865781602001600182028038833980820191505090505b509050600091505b60208260ff161080156110d95750600060f81b848360ff16602081106110b057fe5b1a60f81b7effffffffffffffffffffffffffffffffffffffffffffffffffffffffffffff191614155b1561113c57838260ff16602081106110ed57fe5b1a60f81b818360ff168151811061110057fe5b60200101907effffffffffffffffffffffffffffffffffffffffffffffffffffffffffffff1916908160001a905350818060010192505061108e565b8092505050919050565b60016020528060005260406000206000915090508060000154908060010154908060020154908060030154908060040154908060050160009054906101000a900460ff16908060050160019054906101000a900460ff16905087565b60008060001b600160003373ffffffffffffffffffffffffffffffffffffffff1673ffffffffffffffffffffffffffffffffffffffff16815260200190815260200160002060000154141561125f576040517f08c379a000000000000000000000000000000000000000000000000000000000815260040180806020018281038252600c8152602001807f7369676e7570206669727374000000000000000000000000000000000000000081525060200191505060405180910390fd5b600160003373ffffffffffffffffffffffffffffffffffffffff1673ffffffffffffffffffffffffffffffffffffffff16815260200190815260200160002060000154905090565b600060608290506000815114156112c4576000801b9150506112cd565b60208301519150505b919050565b600160008273ffffffffffffffffffffffffffffffffffffffff1673ffffffffffffffffffffffffffffffffffffffff168152602001908152602001600020600501600081819054906101000a900460ff168092919060010191906101000a81548160ff021916908360ff1602179055505050565b61134f610f92565b61135857600080fd5b61136181611583565b50565b6000806000806000806000600160008973ffffffffffffffffffffffffffffffffffffffff1673ffffffffffffffffffffffffffffffffffffffff16815260200190815260200160002060000154600160008a73ffffffffffffffffffffffffffffffffffffffff1673ffffffffffffffffffffffffffffffffffffffff16815260200190815260200160002060010154600160008b73ffffffffffffffffffffffffffffffffffffffff1673ffffffffffffffffffffffffffffffffffffffff16815260200190815260200160002060020154600160008c73ffffffffffffffffffffffffffffffffffffffff1673ffffffffffffffffffffffffffffffffffffffff16815260200190815260200160002060050160009054906101000a900460ff16600160008d73ffffffffffffffffffffffffffffffffffffffff1673ffffffffffffffffffffffffffffffffffffffff16815260200190815260200160002060050160019054906101000a900460ff16600160008e73ffffffffffffffffffffffffffffffffffffffff1673ffffffffffffffffffffffffffffffffffffffff16815260200190815260200160002060040154600160008f73ffffffffffffffffffffffffffffffffffffffff1673ffffffffffffffffffffffffffffffffffffffff168152602001908152602001600020600301548360ff1693508260ff1692509650965096509650965096509650919395979092949650565b600073ffffffffffffffffffffffffffffffffffffffff168173ffffffffffffffffffffffffffffffffffffffff1614156115bd57600080fd5b8073ffffffffffffffffffffffffffffffffffffffff166000809054906101000a900473ffffffffffffffffffffffffffffffffffffffff1673ffffffffffffffffffffffffffffffffffffffff167f8be0079c531659141344cd1fd0a4f28419497f9722a3daafe3b4186f6b6457e060405160405180910390a3806000806101000a81548173ffffffffffffffffffffffffffffffffffffffff021916908373ffffffffffffffffffffffffffffffffffffffff1602179055505056fe726174696e672073746172742073686f756c64206265206c657373207468616e20356e616d652073686f756c646e277420626520657175616c20746f207a65726f2061646472657373a265627a7a72315820e5edc62429e556007bf9bf703ba8c8d5ff5c5c87f25fcf186145bfb711cd4ec764736f6c63430005100032",
  "source": "pragma solidity ^0.5.16;\n\nimport './Killable.sol';\ncontract Authentication is Killable {\n  struct User {\n    bytes32 name;\n    uint256 age;\n    uint256 phoneNumber;\n    uint driverRating;\n    uint riderRating;\n    uint8 numberOfRidesGiven;// driver\n    uint8 numberOfRidesTaken; //passenger\n  }\n\n  mapping (address => User) public users;\n\n  uint private id; // Stores user id temporarily\n  \n    \n    \n  modifier onlyExistingUser {\n    // Check if user exists or terminate\n\n    require(!(users[msg.sender].name == 0x0),\"signup first\");\n    _;\n  }\n\n  modifier onlyValidName(bytes32 name) {\n    // Only valid names allowed\n    require(!(name == 0x0),\"name shouldn't be equal to zero address\");\n    _;\n  }\n  modifier onlyValidFields(\n    uint256 age,\n    uint256 phoneNumber) {\n    //updating phoneNumber and age\n    require(!(age <= 0 && phoneNumber <= 0 ),\"error in field values\");\n    _;\n  }\n  \n  \n    //writing a test method to contvert name into bytes32-> not used in app\n    function stringToBytes32(string memory source) public pure returns (bytes32 result) {\n    bytes memory tempEmptyStringTest = bytes(source);\n    if (tempEmptyStringTest.length == 0) {\n        return 0x0;\n    }\n    assembly {\n        result := mload(add(source, 32))\n    }\n}\n\n    //another test method to convert bytes32ToString\n    function bytes32ToString(bytes32 _bytes32) public pure returns (string memory) {\n        uint8 i = 0;\n        while(i < 32 && _bytes32[i] != 0) {\n            i++;\n        }\n        bytes memory bytesArray = new bytes(i);\n        for (i = 0; i < 32 && _bytes32[i] != 0; i++) {\n            bytesArray[i] = _bytes32[i];\n        }\n        return string(bytesArray);\n    }\n    \n  function login() view public onlyExistingUser returns (bytes32) {\n    return (users[msg.sender].name);\n  }\n\n  function signup(bytes32 name ) \n  public payable onlyValidName(name) returns (bytes32) {\n    // Check if user exists.\n    // If yes, return user name.\n    // If no, check if name was sent.\n    // If yes, create and return user.\n\n    if (users[msg.sender].name == 0x0 && users[msg.sender].age == 0x0 && users[msg.sender].phoneNumber == 0x0)\n    {\n        users[msg.sender].name = name;\n\n        return (users[msg.sender].name);\n    }\n\n    return (users[msg.sender].name);\n  }\n  \n\n  function update(bytes32 name,\n    uint256 age,\n    uint256 phoneNumber)\n  public\n  payable\n  onlyValidName(name)\n  onlyExistingUser\n  onlyValidFields(age,phoneNumber)\n  returns (bytes32, uint256, uint256) {\n    // Update user name.\n\n     if (users[msg.sender].name != 0x0 )\n     {\n        users[msg.sender].name = name;\n        users[msg.sender].age = age;\n        users[msg.sender].phoneNumber = phoneNumber;\n\n        return(\n        users[msg.sender].name,\n        users[msg.sender].age,\n        users[msg.sender].phoneNumber\n        );\n    }\n  }\n  \n    //called by Passenger\n  function driverRating(address _userAddress, uint _driverRating) public {\n      require(_driverRating <= 5,\"rating start should be less than 5\");\n      //users[_userAddress].driverRating.push(_driverRating);\n      users[_userAddress].driverRating = _driverRating;\n    }\n    //called by driver\n    function riderRating(address _userAddress, uint _riderRating) public {\n      require(_riderRating <= 5,\"rating start should be less than 5\");\n     // users[_userAddress].riderRating.push(_riderRating);\n     users[_userAddress].riderRating = _riderRating;\n    }\n    \n    function numberOfRidesGiven(address _userAddress) public {\n      users[_userAddress].numberOfRidesGiven++;\n    }\n    \n    function numberOfRidesTaken(address _userAddress) public {\n      users[_userAddress].numberOfRidesTaken++;\n    }\n    function getUserData(address _userAddress) public view \n    returns(bytes32 name, uint age,uint256 phoneNumber,\n    uint NumberOfRidesGiven,uint NumberOfRidesTaken ,uint ,uint){\n        \n       return (\n            users[_userAddress].name,\n            users[_userAddress].age,\n            users[_userAddress].phoneNumber,\n            users[_userAddress].numberOfRidesGiven,\n            users[_userAddress].numberOfRidesTaken,\n            users[_userAddress].riderRating,\n            users[_userAddress].driverRating\n       );\n               \n    }\n\n}\n",
  "sourcePath": "/home/khizer/Documents/CyptoRiderFull/contracts/Authentication.sol",
  "compiler": {
    "name": "solc",
    "version": "0.5.16+commit.9c3226ce.Emscripten.clang"
  },
  "schemaVersion": "3.3.4",
  "updatedAt": "2021-05-03T06:54:24.736Z",
  "networkType": "ethereum",
  "devdoc": {
    "methods": {
      "isOwner()": {
        "return": "true if `msg.sender` is the owner of the contract."
      },
      "owner()": {
        "return": "the address of the owner."
      },
      "renounceOwnership()": {
        "details": "Allows the current owner to relinquish control of the contract."
      },
      "transferOwnership(address)": {
        "details": "Allows the current owner to transfer control of the contract to a newOwner.",
        "params": {
          "newOwner": "The address to transfer ownership to."
        }
      }
    }
  },
  "userdoc": {
    "methods": {
      "renounceOwnership()": {
        "notice": "Renouncing to ownership will leave the contract without an owner. It will not be possible to call the functions with the `onlyOwner` modifier anymore."
      }
    }
  }
}